:020000040800F2
:10000000FCFF00206D26000065260000652600002C
:1000100065260000652600006526000065260000B4
:1000200065260000652600006526000065260000A4
:100030006526000065260000652600006526000094
:100040006526000065260000652600006526000084
:100050006526000065260000652600006526000074
:100060006526000065260000652600006526000064
:100070006526000065260000652600006526000054
:100080006526000065260000652600006526000044
:100090006526000065260000652600006526000034
:1000A0006526000065260000652600006526000024
:1000B0006526000065260000652600006526000014
:1000C0006526000065260000652600006526000004
:1000D00065260000652600006526000065260000F4
:1000E00065260000652600006526000065260000E4
:1000F00065260000652600006526000065260000D4
:1001000065260000652600006526000065260000C3
:1001100065260000652600006526000065260000B3
:1001200065260000652600006526000065260000A3
:100130006526000065260000652600006526000093
:100140006526000065260000652600006526000083
:1001500081B000F218010A68C2F3400181F0010188
:10016000C9B2C8B201B0704781B000F214010A6888
:1001700000F218010968090442EA0101084601B0C9
:100180007047FFFF01490860704700BFA08122420D
:1001900001490860704700BFA481224201490860FC
:1001A000704700BFA881224201490860704700BF24
:1001B0009401214201490860704700BF9C8121429F
:1001C00001490860704700BF9881214201490860D9
:1001D000704700BF8001214201490860704700BF9D
:1001E000B481224201490860704700BF8801224261
:1001F00001490860704700BF900121420149086031
:10020000704700BFB001224201490860704700BF3B
:10021000AC01224201490860704700BFA801224298
:1002200001490860704700BF988121420149086078
:10023000704700BF9481224201490860704700BFA7
:100240009881224281B0CDF800E00B46FFF78CFF89
:1002500000EA03029A4240F2000200D10122D0B229
:10026000DDF800E001B0704781B0CDF800E04FF05C
:1002700000021949884207D118490B6818490A68D1
:1002800018490A601C460BE01749884207D11749F4
:100290000B6817490A6813490A601C4600E01446B7
:1002A00014490C6003461846FFF752FF70B9114914
:1002B000096851B12CB905200A4C2468A0470020D8
:1002C00005E0611E08460446FFE7ECE70120DDF883
:1002D00000E001B0704700BF00540040180100204A
:1002E0006C01002068010020005800401C01002023
:1002F000700100202001002001490860704700BF04
:100300009C81214201490860704700BFB0812242B0
:1003100001490860704700BFA801224201490860F6
:10032000704700BFB881224201490860704700BF92
:100330008C01224201490860704700BFB08122420F
:1003400001490860704700BFB001224201490860BE
:10035000704700BFAC01224281B00168C1F3401078
:1003600001B0704781B00168C1F3801001B07047DF
:1003700081B00268C2F3401101B9FAE7011D0968B2
:1003800088B201B07047FFFF83B0CDF800E00346AC
:100390004FF0000026498B4206D126490C682649B9
:1003A0000A6826490A600BE025498B4207D1254996
:1003B000086825490A6821490A60044600E00446A5
:1003C00022490C60019402931846FFF74DFF029BEF
:1003D000019C10B94FF6FF7025E00122196862F305
:1003E0000821196003F214010A68C2F3402111B117
:1003F0004FF6FF7017E025461C4615492046FFF7CB
:1004000021FF78B91149096859B135B906200B4C5B
:100410002468A0474FF6FF7005E0691E08460546B0
:10042000FFE7EAE70020DDF800E003B0704700BF17
:1004300000540040180100206C01002068010020D9
:10044000005800401C010020700100202001002005
:100450000100030082B0CDF800E0029E4FF00005DD
:10046000564CA04206D1564C2768564C2568564C2F
:1004700025600AE0554CA04206D1554C2768554CE2
:100480002568514C256000E02F46534C276000F250
:1004900010054C00A4B22C60B9460746904635467C
:1004A0001E464E493846FFF7CDFE88B94A4C2468AF
:1004B0006CB1B9F1000F06D10420434C2468A04769
:1004C0004FF6FF7076E0A9F101008146FFE7E8E70B
:1004D0000020019729463746019E7C1EA04226D265
:1004E00006F2100508EB000424782C603A4CD4F88E
:1004F000009082460D463A493046FFF7A3FE88B980
:10050000354C24686CB1B9F1000F06D104202E4C93
:100510002468A0474FF6FF704CE0A9F10100814626
:10052000FFE7E8E70AF1010420462946D5E706F28D
:10053000100508EB000424782C60274C27680D4632
:1005400028493046FFF77EFE70B9234C246854B129
:1005500037B904201C4C2468A0474FF6FF7029E0EF
:10056000781E0746FFE7EBE7012D05D1012534682A
:1005700065F3492434601CE00125346865F30824E0
:100580003460154C2768354617492846FFF75AFE50
:1005900078B9114C24685CB137B904200A4C24683E
:1005A000A0474FF6FF7005E07C1E20460746FFE798
:1005B000EAE70020DDF800E002B070470054004098
:1005C000180100206C010020680100200058004044
:1005D0001C01002070010020200100208200070083
:1005E00080000700840007000100030083B0CDF8FD
:1005F00000E000F0FF031A09104603F00F02134653
:1006000014E0194A02921FE0184A02921CE0184AAC
:10061000029219E0174A029216E0174A029213E07A
:10062000164A029210E0164A02920DE00028E8D025
:100630000128E9D00228EAD00328EBD00428ECD026
:100640000528EDD00628EED0012212B29A40ADF86E
:10065000042002980A46BDF8041000F06BFCDDF897
:1006600000E003B0704700BF00080140000C0140EB
:10067000001001400014014000180140001C01401E
:100680000020014001480068704700BF640100205D
:1006900081B0CDF800E00348FFF76AFEDDF800E026
:1006A00001B070470044004081B0CDF800E003483D
:1006B000FFF758FEDDF800E001B070470038014058
:1006C00081B0CDF800E00348FFF746FEDDF800E01A
:1006D00001B070470038014082B0CDF800E0034619
:1006E00019460191FFF7CEFF40F2E83100FB01F21D
:1006F00001990A601F490978C1F30311C8B21E4964
:1007000009180878C0B21A1D1968C140116019494A
:100710000988C1F3022188B2174909180878C0B2C4
:1007200003F20802191D0968C140116011490988C6
:10073000C1F3C22188B2104909180878C0B203F287
:100740000C02191D0968C14011600A490988C1F3EA
:10075000813188B2094909180978C8B203F2100238
:1007600003F20C010968B1FBF0F11160DDF800E063
:1007700002B0704704100240F82A0000242B000049
:1007800081B0CDF800E0012252B23E490A6000F289
:1007900068010B686FF0006103EA0102144603F080
:1007A0000061C90E0B4602F00041B1F1004F02D1C9
:1007B00035490A6801E035490A6804F47021090CDA
:1007C0000E464FF6FF7104EA01010D4604F4401194
:1007D000B1F5401F0DD16FF0706102EA01010E46C4
:1007E0002A490A686FF070610A4028490A60324657
:1007F00016E004F48011B1F5801F09D14FF0030118
:10080000B140C94302EA010141F070610A4607E0C4
:10081000610D090105FA01F1C9430A4042F0706215
:100820002BB1610D090105FA01F10A43FFE704F05C
:100830000041B1F1004F02D113490A6001E01349B0
:100840000A6040F2000A81464FEA8A0109EB010181
:100850000968B1F1FF3F10D009F134014FEA8A0372
:10086000C91809680A4609EB0301096808461146D8
:10087000FFF7BCFE0AF1010AE6E7DDF800E001B08F
:10088000704700BF000342421C00014004000140C9
:1008900081B0194900EA0101084600220EE0042057
:1008A00022E0082020E010201EE020201CE0402054
:1008B0001AE0802018E040F2001015E00F4988424D
:1008C000EDD00F498842ECD00E498842EBD00E495A
:1008D0008842EAD00D498842E9D00D498842E8D0E3
:1008E0000C498842E7D010460B49096841EA0002EA
:1008F00009490A6001B0704700FCFFFF0008014091
:10090000000C01400010014000140140001801409B
:10091000001C0140002001401810024081B0CDF8B9
:1009200000E00348FFF724FDDDF800E001B0704768
:100930000038014081B0CDF800E00348FFF724FD06
:10094000DDF800E001B070470058004081B0CDF8FC
:1009500000E00348FFF700FDDDF800E001B070475C
:100960000050004081B0CDF800E00348FFF700FDE3
:10097000DDF800E001B070470050004081B0CDF8D4
:1009800000E00348FFF7EEFCDDF800E001B070473F
:10099000004C004081B0CDF800E00348FFF7E2FCD6
:1009A000DDF800E001B070470050004082B0CDF8A3
:1009B00000E0CFB201469846029B4FF000064FF090
:1009C0000005C44CA14207D1C34CD4F80090C34CDD
:1009D0002568C34C25600BE0C24CA14207D1C24C34
:1009E0002068C24C2568BE4C2560814600E0A946BF
:1009F000BF4CC4F80090F4E101F210057C00A4B2F1
:100A000044F00104A4B22C60019616464F46019AA8
:100A100001F214042568C5F3400464B9B44C246899
:100A200044B127B90320AE4C2468A047E2E1781E08
:100A30000746FFE7ECE700250C6865F38A240C60A5
:100A400001F21404206800BF01F218042468240491
:100A500040EA04042046012B05D101250C6865F30A
:100A600049240C6004E001250C6865F308240C603F
:100A70009F4C25689146984637460E469D4930461C
:100A8000FFF7E0FB68B99A4C24684CB125B9032004
:100A9000934C2468A047ADE16C1E20460546FFE755
:100AA000ECE707EB090506F2100424682C70B8F196
:100AB000010F13D18E4C216830460568C5F34024E0
:100AC0005CB98B4C24683CB121B90320844C246868
:100AD000A0478FE1491EFFE7EFE712E0844C216851
:100AE00030460568C5F300245CB9814C24683CB1EC
:100AF00021B903207A4C2468A0477BE1491EFFE717
:100B0000EFE777E101250C6865F38A240C60012585
:100B10000C6865F3CB240C6001F210057C00A4B2D4
:100B200044F00104A4B22C604F4601F2140425687D
:100B3000C5F3400464B96E4C246844B127B903205E
:100B4000674C2468A04755E1781E0746FFE7ECE7AD
:100B500001F21404206800BF01F218042468240480
:100B6000204300250C6865F38A240C60604C2768DC
:100B700001F214042568C5F3800464B95C4C246850
:100B800044B127B90320564C2468A04732E1781EAF
:100B90000746FFE7ECE7012B05D101250C6865F35B
:100BA00049240C6004E001250C6865F308240C60FE
:100BB000951901F2100424682C70741C151901F2A7
:100BC000100424682C70012B14D1494C22680D6844
:100BD000C5F3402464B9464C246844B122B90320CB
:100BE0003F4C2468A04705E1501E0246FFE7EEE7B0
:100BF000084613E03E4C22680D68C5F3002464B932
:100C00003B4C246844B122B90320354C2468A047EA
:100C1000F0E0501E0246FFE7EEE7084600250468B4
:100C200065F3CB240460E5E001250C6865F38A24B4
:100C30000C6001F210057C00A4B244F00104A4B2DF
:100C40002C604646C846894617461D462A494846EE
:100C5000FFF7F8FA78B9264C24685CB1B8F1000FB8
:100C600004D103201E4C2468A047C3E0A8F1010072
:100C70008046FFE7EAE70021A8464A46B1463B46E0
:100C8000A9F10304A14222D2194C25688A461746CD
:100C90001E4618493846FFF7D5FA60B9144C246847
:100CA00044B125B903200E4C2468A047A2E0681E79
:100CB0000546FFE7EDE706EB0A0507F21004246896
:100CC0002C700AF10104214633463A46D8E7084C15
:100CD00000F014B800540040180100206C010020FE
:100CE00068010020005800401C0100207001002015
:100CF0002001002040000300020003002768019348
:100D00000B4616464246019906F214042568C5F3BF
:100D1000800464B9394C246844B127B90320384CA5
:100D20002468A04766E0781E0746FFE7ECE7002549
:100D3000346865F38A243460CD1806F21004246800
:100D40002C70581C2D4C23681746024606F21404DA
:100D50002568C5F3800464B9284C246844B123B9DC
:100D60000320274C2468A04744E0581E0346FFE7B1
:100D7000ECE7012F07D10125346865F3492434607D
:100D80001046324621E00125346865F308243460BA
:100D90001A4CD4F8008017460D461A493046FFF722
:100DA00051FA78B9154C24685CB1B8F1000F04D140
:100DB0000320134C2468A0471CE0A8F101008046E2
:100DC000FFE7EAE72946324638460D1802F21004DA
:100DD00024682C70441C0D1902F2100424682C7035
:100DE00008E0B8F1010F3FF407AEB8F1020F3FF48D
:100DF00089AE19E7DDF800E002B07047200100205D
:100E0000680100200100030081B0CDF800E008B4C3
:100E100013460A46C1B20448FFF71CFB01B0DDF8D7
:100E200000E001B0704700BF0058004081B0CDF82D
:100E300000E008B413460A46C1B20448FFF70AFBB3
:100E400001B0DDF800E001B0704700BF0054004081
:100E500081B0CDF800E00348FFF78AFADDF800E042
:100E600001B070470048004081B0CDF800E0034871
:100E7000FFF778FADDF800E001B070470044004069
:100E800081B0CDF800E00348FFF766FADDF800E036
:100E900001B070470044004081B0CDF800E0034845
:100EA000FFF75AFADDF800E001B070470048004053
:100EB00081B0CDF800E00348FFF74EFADDF800E01E
:100EC00001B07047004C004081B0CDF800E003480D
:100ED000FFF74EFADDF800E001B07047004C00402B
:100EE00081B0CDF800E00348FFF73CFADDF800E000
:100EF00001B070470048004081B0CDF800E00348E1
:100F0000FFF742FADDF800E001B0704700540040FE
:100F100081B0CDF800E008B413460A46C1B20448D7
:100F2000FFF744FD01B0DDF800E001B0704700BFFD
:100F30000058004081B0CDF800E08CB21546774BE8
:100F400000EA03031E461846FFF7A2FCB4F1FF0FA8
:100F50000CD1734B9D4203D14FF033333360D9E052
:100F6000422D03D14FF044333360D3E04FF6FF738B
:100F70009C4214D16A4B9D4207D14FF0333333600A
:100F8000341D4FF033332360C4E0422D07D14FF0BE
:100F900044333360341D4FF044332360BAE0002102
:100FA000002005F001030BB100211DE005F0020354
:100FB00033B105F4C0730BB1082100E0042113E044
:100FC00005F0040333B105F020030BB1042100E068
:100FD000002109E005F0080333B105F020030BB14F
:100FE0000C2100E00821FFE74E4B05EA03030BB19B
:100FF000032009E005F400730BB1022004E005F4BE
:1010000080630BB10120FFE705F00C030BB1014336
:10101000FFE704F0FF039BB2002B3BD037680020B2
:101020001FFA84F832462E4608282CD24FF00103CE
:1010300003FA00F408EA0403A34222D185004FF02A
:101040000F03AB40DB4307EA030401FA05F344EA6C
:1010500003031D4606F48173B3F5817F05D102F2C7
:1010600014044FF001038340236006F08203822BB7
:1010700005D102F210044FF00103834023602F4694
:10108000FFE7401CD0E717601FFA88F00F46314693
:10109000164602E00F462946A0B2B0F1FF0F39D93B
:1010A000331DD3F800800022082A30D202F208044F
:1010B0004FF0010303FA04F400EA0403A34224D12D
:1010C00095004FF00F03AB40DB4308EA030807FA33
:1010D00005F348EA030801F48173B3F5817F07D172
:1010E00006F2140502F208044FF00103A3402B603E
:1010F00001F08203822B07D106F2100502F20804E8
:101100004FF00103A3402B60FFE7521CCCE7331DD7
:10111000C3F80080DDF800E001B0704700FCFFFF7D
:10112000140008000008080089B0CDF800E08346EC
:1011300098B28C46BDF824100A9E04ACADF8041099
:10114000ADF808002046FFF7C7FABDF80800BDF863
:101150000410644CA34512D101256DB2624C256088
:10116000624D634C2560634D634C2560634D644C58
:101170002560644D644C2560079C039456E0634CE5
:10118000A34512D101256DB2614C2560614D584CCB
:101190002560614D584C2560604D594C2560604D6F
:1011A000594C2560069C039440E05E4CA34512D147
:1011B00001256DB25C4C25605C4D4D4C25605C4D4D
:1011C0004D4C25605B4D4E4C25605B4D4E4C256073
:1011D000069C03942AE0594CA34512D101256DB217
:1011E000574C2560574D424C2560574D424C256069
:1011F000564D434C2560564D434C2560069C039448
:1012000014E0544CA34511D101256DB2524C256018
:10121000524D374C2560524D374C2560514D384C5E
:101220002560514D384C2560069C0394ADF80410A0
:10123000ADF808003046FFF7A3FABDF80800BDF886
:1012400004100BF1100500242C600BF110052C6824
:101250000C432C600BF10C0500242C6018B140F4F9
:10126000806080B2FFE70BF10C052C6804432C6012
:101270000BF10C060125346865F34D3434600BF135
:101280000C060125346865F3C30434600BF10C06C9
:101290000125346865F3820434600BF114050024E1
:1012A0002C60039D192465434FEA8C04B5FBF4F7C9
:1012B0006424B7FBF4F42601350964246C433C1B19
:1012C000240104F232056424B5FBF4F404F00F04A5
:1012D00046EA04040BF10805A4B22C60DDF800E036
:1012E00009B070470038014038034242D916000067
:1012F000800100201D09000084010020C1060000BB
:1013000088010020A90600008C0100200044004054
:10131000C40342426D16000091060000810E0000D9
:10132000690E000000480040C80342422D1700002B
:10133000510E0000990E0000E10E0000004C00402C
:10134000CC03424211170000C90E0000B10E00008C
:101350007D09000000500040D0034242F516000015
:10136000650900004D0900009509000081B0CDF825
:1013700000E008B413460A46C1B20448FFF716FB62
:1013800001B0DDF800E001B0704700BF005400403C
:1013900081B0ADF800100146BDF800000B68C3F342
:1013A000C01202B9FAE70A1D106001B07047FFFFD2
:1013B00082B0CDF800E040F20004ADF80440064CE5
:1013C0002468A047BDF9041041EA000000B2DDF82E
:1013D00000E002B0704700BF9401002082B0CDF859
:1013E00000E040F20004ADF80440054C2468A0473A
:1013F000BDF90440044320B2DDF800E002B07047BC
:101400009801002088B0CDF800E00E46554B984278
:101410000DD1012464B2544B1C60544C544B1C60DD
:10142000544C554B1C60554C554B1C600FE0554BB4
:1014300098420CD1012464B2534B1C60534C4C4B6A
:101440001C60534C4C4B1C60524C4D4B1C60019625
:1014500002901046FFF794F90298019E031D1B6845
:101460009CB26FF03F0304EA03039DB203AB01900B
:101470001846FFF731F90198059F059C464BB4FBD0
:10148000F3F399B29BB245EA0304A4B2031D1C60B6
:101490000024036864F30003036000223F4B9E4274
:1014A00012D87300B7FBF3F4A4B2042C02D20423C5
:1014B0001C46FFE742EA04039AB200F220044B1CE8
:1014C0009BB2236091B23FE0032306FB03F4B7FB1A
:1014D000F4F31FFA83F8192306FB03F5B7FBF5F3C2
:1014E0001FFA83F908FB04F409FB05F33C1BFB1A04
:1014F0009C4205D203237343B7FBF3F4A4B206E086
:1015000019237343B7FBF3F4A4B244F4804440F6C8
:10151000FF7304EA030313B944F00104FFE744F442
:1015200000439BB21A4392B200F2200540F22C1302
:1015300001FB03F4A4B240F2E833B4FBF3F39BB233
:101540005B1C9BB22B6091B200F21C03196000235C
:1015500003600124036864F300030360DDF800E026
:1015600008B0704700540040D4034242F90E000016
:10157000740100206D130000780100202D0E000082
:101580007C01002000580040D80342423509000089
:10159000110F0000090E000040420F00A08601005C
:1015A00081B0CDF800E0019D2C4610B408B493B290
:1015B0008AB201460348FFF7B7FD02B0DDF800E04C
:1015C00001B070470048004082B0CDF800E001AAA9
:1015D0001070521C1170FFF7EBFE01AB054A127838
:1015E00019460123D0B20222FFF7F8FEDDF800E031
:1015F00002B070472901002081B0CDF800E0019DC4
:101600002C4610B408B493B28AB201460348FFF7DF
:101610008BFD02B0DDF800E001B0704700380140FA
:1016200081B0CDF800E0019D2C4610B408B493B20F
:101630008AB201460348FFF777FD02B0DDF800E00B
:1016400001B070470044004082B0CDF800E040F2A5
:101650000004ADF80440044C2468A047BDF9040020
:10166000DDF800E002B070479C01002081B0CDF8A9
:1016700000E081B20348FFF78BFEDDF800E001B027
:10168000704700BF0044004081B00A4681B200208C
:101690008DB21146052805D20B1820221A70401C65
:1016A000C0B2F7E70B1800221A70401EC0B20C1827
:1016B0000A23B5FBF3F203FB125292B230322270CE
:1016C0000A22B5FBF2F292B295B202B902E0401ED4
:1016D000C0B2ECE701B0704781B0CDF800E081B254
:1016E0000348FFF755FEDDF800E001B0704700BF8A
:1016F0000038014081B0CDF800E081B20348FFF727
:1017000047FEDDF800E001B0704700BF0050004028
:1017100081B0CDF800E081B20348FFF739FEDDF873
:1017200000E001B0704700BF004C004081B0CDF830
:1017300000E081B20348FFF72BFEDDF800E001B0C6
:10174000704700BF0048004081B0CDF800E04FF086
:10175000420289B2FFF7EEFBDDF800E001B070470E
:1017600081B0CDF800E0044A89B2FFF7E3FBDDF871
:1017700000E001B0704700BF1400080081B0CDF850
:1017800000E00A4601460348FFF73CFEDDF800E0B2
:1017900001B070470054004081B0CDF800E00D2248
:1017A000B0FBF2F102FB1101C9B2C8B209B90120C4
:1017B000FFE70A21B0FBF1F201FB1202D2B20A21CB
:1017C000B0FBF1F1C9B20901C9B211430520FFF71D
:1017D000FBFEDDF800E001B07047FFFF81B0CDF8FF
:1017E00000E0042000F070F900F00F02D2B200F027
:1017F0003000C0B20109C9B20A2000B2484300B2A9
:101800008018C0B2DDF800E001B0704781B0CDF8BB
:1018100000E0094902B440F2000340F2000240F245
:101820000001FFF7FDFE01B0044A05490A600020EF
:10183000DDF800E001B07047E82800006D160000F8
:101840006001002081B0CDF800E000F01F01C9B2B6
:10185000C8B209B90120FFE70A21B0FBF1F201FB90
:101860001202D2B20A21B0FBF1F1C9B20901C9B228
:1018700011430420FFF7A8FEDDF800E001B0704737
:1018800081B0014640F200052DB208460C460B46D9
:10189000FFE70178202901D105B904E001252DB227
:1018A00001782170641C0246401C11780029F0D197
:1018B000184601B07047FFFF81B0CDF800E03C2131
:1018C000B0FBF1F301FB1303DBB20A21B3FBF1F22E
:1018D00001FB1232D2B20A21B3FBF1F1C9B2090104
:1018E000C9B211430120FFF76FFEDDF800E001B03F
:1018F0007047FFFF81B0CDF800E000F00701C9B2EA
:10190000C8B209B90120FFE7C1B20320FFF75CFEAE
:10191000DDF800E001B0704781B0CDF800E03C2177
:10192000B0FBF1F301FB1303DBB20A21B3FBF1F2CD
:1019300001FB1232D2B20A21B3FBF1F1C9B20901A3
:10194000C9B211430020FFF73FFEDDF800E001B00F
:101950007047FFFF81B0CDF800E0052000F0B4F83B
:1019600000F00F02D2B200F01000C0B20109C9B2FB
:101970000A2000B2484300B28018C0B2DDF800E08F
:1019800001B0704781B0CDF800E00E46002183B26F
:10199000002805DA0121404280B280B28FB201E016
:1019A00098B28FB23146FFF76FFE06213446B8B2C7
:1019B000002908D963184A1E92B2A21812781A7028
:1019C000491E89B2F4E72022227070B1002081B252
:1019D000204642181278202A02D1491C89B2F8E721
:1019E0004A1E92B283182D221A70DDF800E001B071
:1019F0007047FFFF81B0CDF800E0002000F064F8F0
:101A000000F00F02D2B200F07000C0B20109C9B2FA
:101A10000A2000B2484300B28018C0B2DDF800E0EE
:101A200001B0704781B0CDF800E0022000F04CF822
:101A300000F00F02D2B200F03000C0B20109C9B20A
:101A40000A2000B2484300B28018C0B2DDF800E0BE
:101A500001B0704781B0CDF800E0012000F034F80B
:101A600000F00F02D2B200F07000C0B20109C9B29A
:101A70000A2000B2484300B28018C0B2DDF800E08E
:101A800001B0704781B0CDF800E0032000F01CF8F1
:101A9000DDF800E001B0704781B0CDF800E006202D
:101AA00000F012F800F00F02D2B200F0F000C0B265
:101AB0000109C9B20A2000B2484300B28018C0B27E
:101AC000DDF800E001B0704782B0CDF800E00DF124
:101AD00005010870FFF76CFC0DF105020B49097850
:101AE0000023C8B211460122FFF778FC01AA07497A
:101AF00009780123C8B211460222FFF7A5FD01A90A
:101B00000978C8B2DDF800E002B070472901002072
:101B100081B0CDF800E06421B0FBF1F301FB1303C9
:101B20009BB20A21B3FBF1F201FB12320A21B3FB93
:101B3000F1F189B20901D2B2C9B211430620FFF70F
:101B400043FDDDF800E001B07047FFFF81B0CDF844
:101B500000E0094902B440F2000340F2000240F202
:101B60000001FFF75DFD01B0044A05490A6000204D
:101B7000DDF800E001B07047E82800006D160000B5
:101B80006001002081B0CDF800E0016808460449FA
:101B9000FFF7F4FD0020DDF800E001B0704700BF62
:101BA0002C2A000081B0CDF800E01821B0FBF1F341
:101BB00001FB1303DBB20A21B3FBF1F201FB12328A
:101BC000D2B20A21B3FBF1F1C9B20901C9B2114382
:101BD0000220FFF7F9FCDDF800E001B07047FFFFDD
:101BE00081B0CDF800E0094902B440F2000340F2B0
:101BF000000240F20001FFF7FFFC01B0044A054972
:101C00000A600020DDF800E001B07047C029000044
:101C1000D91600006001002081B0CDF800E0A9E0F5
:101C2000012905D140F220016548FFF78DFD04E050
:101C300040F220016248FFF793FDBBE0012905D186
:101C400040F208015F48FFF77FFD04E040F2080121
:101C50005C48FFF785FDADE0012905D144F20001A4
:101C60005948FFF771FD04E044F200015648FFF7C0
:101C700077FD9FE0012905D140F200415148FFF76F
:101C800063FD04E040F200414E48FFF769FD91E03A
:101C9000012905D140F600014A48FFF755FD04E04F
:101CA00040F600014748FFF75BFD83E0012905D1BD
:101CB00041F200014348FFF747FD04E041F2000113
:101CC0004048FFF74DFD75E0012905D141F20001C3
:101CD0003D48FFF739FD04E041F200013A48FFF7C3
:101CE0003FFD67E0012905D140F600013648FFF7C6
:101CF0002BFD04E040F600013348FFF731FD59E0C9
:101D0000012905D140F240012F48FFF71DFD04E0F5
:101D100040F240012C48FFF723FD4BE0012905D19B
:101D200040F220012848FFF70FFD04E040F22001B7
:101D30002548FFF715FD3DE0012905D140F240019E
:101D40002248FFF701FD04E040F240011F48FFF781
:101D500007FD2FE0012905D140F280011B48FFF764
:101D6000F3FC04E040F280011848FFF7F9FC21E0A1
:101D7000012020E000283FF453AF01283FF45EAF7C
:101D800002283FF469AF03283FF474AF04283FF4FE
:101D90007FAF05283FF48AAF06283FF495AF0728A8
:101DA000A0D00828ACD00928B8D00A28C4D00B2865
:101DB000D0D0DDE70020DDF800E001B0704700BFC3
:101DC000000801400010014000140140000C0140D7
:101DD00081B0CDF800E0016808460449FFF7CEFC69
:101DE0000020DDF800E001B0704700BF2C2A0000A1
:101DF00081B0CDF800E0094902B440F2000340F29E
:101E0000000240F20001FFF7CBFB01B0044A054994
:101E10000A600020DDF800E001B07047542900009E
:101E20002D1700006001002081B0CDF800E0A9E08E
:101E3000012905D140F210016548FFF785FC04E057
:101E400040F210016248FFF78BFCBBE0012905D18D
:101E500040F204015F48FFF777FC04E040F2040120
:101E60005C48FFF77DFCADE0012905D142F200019D
:101E70005948FFF769FC04E042F200015648FFF7B9
:101E80006FFC9FE0012905D140F200415148FFF766
:101E90005BFC04E040F200414E48FFF761FC91E03A
:101EA000012905D140F600014A48FFF74DFC04E046
:101EB00040F600014748FFF753FC83E0012905D1B4
:101EC00041F200014348FFF73FFC04E041F200010A
:101ED0004048FFF745FC75E0012905D140F20101BA
:101EE0003B48FFF731FC04E040F201013848FFF7BE
:101EF00037FC67E0012905D140F200413648FFF781
:101F000023FC04E040F200413348FFF729FC59E08C
:101F1000012905D140F200212F48FFF715FC04E00C
:101F200040F200212C48FFF71BFC4BE0012905D1B2
:101F300040F200112848FFF707FC04E040F20011CE
:101F40002548FFF70DFC3DE0012905D140F2400195
:101F50002248FFF7F9FB04E040F240011F48FFF779
:101F6000FFFB2FE0012905D140F280011B48FFF75C
:101F7000EBFB04E040F280011848FFF7F1FB21E0A1
:101F8000012020E000283FF453AF01283FF45EAF6A
:101F900002283FF469AF03283FF474AF04283FF4EC
:101FA0007FAF05283FF48AAF06283FF495AF072896
:101FB000A0D00828ACD00928B8D00A28C4D00B2853
:101FC000D0D0DDE70020DDF800E001B0704700BFB1
:101FD000000801400010014000140140000C0140C5
:101FE00000F230011C310A6801490A60704700BFE5
:101FF00090010020026806490A60011D0A6805492F
:102000000A6000F208010A6803490A60704700BFCD
:1020100094010020980100209C01002081B0CDF89F
:1020200000E00178CCB2A0B2034C2468A0470020A5
:10203000DDF800E001B070476001002085B0CDF808
:1020400000E00190029103920493FFF71BFD019CB5
:102050002070FFF7C3FB029C2070FFF77BFC039C02
:102060002070FFF719FD049C2080DDF800E005B02A
:102070007047FFFF81B0CDF800E05FFA81F95FFAA9
:1020800082FA0FE05FFA8AF15FFA89F0FFF7CCFE7F
:102090000DE05FFA8AF15FFA89F0FFF7BDFD06E017
:1020A000012004E00028EDD00128F2D0F8E7DDF8A7
:1020B00000E001B07047FFFF82B0CDF800E08DF87E
:1020C00004009DF804200A21B2FBF1F1C9B2C8B2A4
:1020D0001049FFF757FC0F48FFF7D2FB01210D48CD
:1020E00000F074F89DF804300A22B3FBF2F102FB11
:1020F0001131C9B2C8B20749FFF744FC0548FFF7E0
:10210000BFFB0121034800F061F8DDF800E002B0F8
:10211000704700BF2C01002044F67F77C0F2120701
:102120007F1EFDD100BF00BF00BF00BF00BF7047D2
:1021300081B0CDF800E08B4609E05846FFF748FE35
:102140000AE05846FFF71EFD06E0012004E00028E3
:10215000F3D00128F5D0F8E7DDF800E001B07047D2
:1021600081B0CDF800E00446054B1A700846FFF731
:1021700041FF2046FFF734FFDDF800E001B0704773
:102180002901002081B0CDF800E011E00846FFF7FA
:102190002FFE16E00846FFF7D9FC12E00846FFF7CD
:1021A0001FFD0EE00846FFF731FB0AE0012008E0C2
:1021B0000028EBD00128EDD02028EFD03028F1D036
:1021C000F4E7DDF800E001B07047FFFF83B0CDF821
:1021D00000E0024610460D228DF808200A228DF8F4
:1021E00009201FE0FFF71AFF23E002782AB10190CF
:1021F000FFF714FF0198401CF7E71AE002782AB1B4
:102200000190FFF70BFF0198401CF7E702AA104668
:10221000FFF704FF0DF109021046FFF7FFFE08E08B
:10222000062007E00029DDD00129DED00229E5D013
:10223000F6E70020DDF800E003B0704781B0CDF88C
:1022400000E00020FFF740FC00F07F00C1B200205A
:10225000FFF7BAF9DDF800E001B0704783B0CDF8C0
:1022600000E08DF804108DF80820FFF79BFC9DF826
:102270000400FFF721FB9DF80800FFF74DFBDDF898
:1022800000E003B07047FFFF42F6DF67C0F20007CF
:102290007F1EFDD100BF00BF00BF00BF00BF704761
:1022A00084B0CDF800E0019002910392FFF7BAFBF1
:1022B000019B1870FFF7CEFB029B1870FFF79AFB8B
:1022C000039B1870DDF800E004B0704784B0CDF8CF
:1022D00000E08DF804108DF80820ADF80C30FFF701
:1022E00009FB9DF80400FFF7ADFA9DF80800FFF721
:1022F00053FABDF80C00FFF70BFCDDF800E004B06A
:102300007047FFFF82B0CDF800E08DF804009DF823
:102310000410012904D11F4908460221FFF756FF86
:102320009DF80410022904D11B4908460221FFF739
:102330004DFF9DF80410032904D1184908460221D5
:10234000FFF744FF9DF80410042904D114490846FE
:102350000221FFF73BFF9DF80410052904D1114924
:1023600008460221FFF732FF9DF80410062904D128
:102370000D4908460221FFF729FF9DF8041007299F
:1023800004D10A4908460221FFF720FFDDF800E0EA
:1023900002B0704792000020A5000020B800002085
:1023A000CB000020DE000020F1000020040100200E
:1023B00081B01548006840F00101134801601349DD
:1023C0001348016010480168124801400E4801603E
:1023D0000D4801686FF4802001400B4801600C48F3
:1023E00001686FF4FE000140094801600648016879
:1023F0006FF0A0500140044801604FF00001064812
:10240000016001B0704700BF001002400000FFF003
:1024100004100240FFFFF6FE2C10024081B01CF8B1
:10242000019B0BF8019BBBEB0A0FF8D101B0704781
:1024300081B0CDF800E0682210491148FFF790FE06
:1024400010480221FFF7C2FE0F480221FFF7BEFE2F
:102450000E480221FFF7BAFE32223B211720FFF778
:10246000FDFE40F2E2730C221F210120FFF72EFF38
:10247000FFF7E4FEDDF800E001B07047142B000028
:10248000982A0000590000206C0000207F000020E6
:1024900081B0CDF800E03E4A3E493F48FFF700FFDB
:1024A0003E4B3F4A3F494048FFF7C8FD3848017856
:1024B0003E480078884200F065803648017836480A
:1024C000007840EA0101C9B23148007841EA0000D1
:1024D000C0B278B932480178324800780843C0B2B7
:1024E000012807D132480221FFF770FE314802214E
:1024F000FFF76CFE30480121FFF768FE26480078A0
:10250000FFF7DAFD2D480121FFF760FE2148007832
:10251000FFF7D2FD2A480121FFF758FE1C4800783A
:10252000FFF7CAFD27480221FFF750FE1E4800783A
:10253000FFF7E8FE24480121FFF748FE194800781C
:10254000FFF7BAFD21480121FFF740FE144800784B
:10255000FFF7B2FD1E480121FFF738FE1D4801219B
:10256000FFF734FE0D480088FFF7A6FD1A48022148
:10257000FFF72CFE19480221FFF728FE04480178D6
:102580000A480170FFF780FEDDF800E001B07047F7
:102590002501002024010020170100202A0100202D
:1025A0002801002027010020260100200000002033
:1025B000010000201400002027000020300000202F
:1025C0003200002034000020350000203D000020B3
:1025D0003F00002041000020440000204600002071
:1025E00081B0CDF800E0012207210020FFF742FD75
:1025F000074801460020FFF79BFD42F28051202052
:10260000FFF7C0FDFFF788FDDDF800E001B070477F
:10261000202B000081B04FF000094FF0000CBDEB03
:102620000A0F04DCBDEB0B0F01DBD446EA464BF886
:10263000049BBBEB0A0FFAD1BCEB0A0F05DDE246A7
:10264000D9F800B00BF1040BF1E701B07047FFFFC0
:1026500081B002490248016001B070474019010091
:102660006401002081B0FEE701B0704700F00EF871
:1026700000F0A8FAFFF7ECFF00F056FAFFF7B0FF02
:10268000FFF7D6FEFFF704FFFCE7FEE781B0CDF8C9
:1026900000E0464A464B474C47494BF68030814262
:1026A00006D94648006840F002014448016011E044
:1026B00045F6C050814206D94048006840F001010B
:1026C0003E48016006E03D4801686FF007000140A8
:1026D0003A480160FFF76CFE3948036039480460EE
:1026E000394802EA00013948016002F0010040B1B6
:1026F00019463648006800F00200002800D1F8E7CB
:1027000000E0194602F4803040B10B462F480068C3
:1027100000F40030002800D1F8E700E00B4602F09A
:10272000805068B12948006840F080512748016016
:102730002648006800F00050002800D1F8E7FFE7C5
:1027400002F0806078B12148006840F080611F4845
:10275000016011461A461D48006800F0006000281C
:1027600000D1F8E701E011461A4601F0807070B11F
:102770001648006840F08071144801601146134803
:10278000006800F0007000B9F9E70A46FFE70C485E
:10279000006800F00C01900000F00C00814200D0B5
:1027A000F5E7DDF800E001B0704700BF81000105EA
:1027B00002841D004406010040190100002002406F
:1027C000041002402C100240FFFF0F0000100240D6
:1027D000FF20204861707079204E6577205965612F
:1027E000722020002D2D2D2D2D2D2D2D2D2D2D2D1B
:1027F0002D2D2D2D2D2D002054696D65203A2000A2
:102800003A003A000020446174653A20002E002E00
:10281000003230002E002D2D2D2D2D2D2D2D2D2D66
:102820002D2D2D2D2D2D2D2D002D2D2D2D2D2D2D05
:102830002D2D2D2D2D2D2D2D2D2D2D002020202029
:10284000525443203320436C69636B202020002DB9
:102850002D2D2D2D2D2D2D2D2D2D2D2D2D2D2D2DA8
:102860002D002020202020204D6F6E6461792020D3
:102870002020202000202020202020547565736413
:10288000617920202020200020202020205765640E
:102890006E65736461792020202000202020202094
:1028A00054687572736461792020202020002020F4
:1028B0002020202046726964617920202020202079
:1028C00000202020202053617475726461792020DB
:1028D0002020200020202020202053756E64617964
:1028E00020202020202000FF3500000036000000BE
:1028F000FFFFFFFF000000000000000000000000DC
:1029000000000000000000000000000000000000C7
:102910000000000000000000000000001808000097
:10292000180000000000000000000000000000008F
:102930000000000000000000000000000000000097
:102940000000000000000000000000000000000087
:10295000080000083800000039000000FFFFFFFFFA
:102960000000000000000000000000000000000067
:102970000000000000000000000000000000000057
:10298000000000000000000018080000180000000F
:102990000000000000000000000000000000000037
:1029A0000000000000000000000000000000000027
:1029B00000000000000000000000000030001408CB
:1029C000090000000A000000FFFFFFFF00000000F8
:1029D00000000000000000000000000000000000F7
:1029E00000000000000000000000000000000000E7
:1029F000000000001808000018000000000000009F
:102A000000000000000000000000000000000000C6
:102A100000000000000000000000000000000000B6
:102A2000000000000000000004000000160000008C
:102A300017000000FFFFFFFF000000000000000083
:102A40000000000000000000000000000000000086
:102A50000000000000000000000000000000000076
:102A60002808000028080000000000000000000006
:102A70000000000000000000000000000000000056
:102A80000000000000000000000000000000000046
:102A90000000000002000000F1010000E50100005C
:102AA000D90100001502000009020000FD0100002C
:102AB000CD0100009D010000910100008501000092
:102AC000C1010000B5010000FFFFFFFFFFFFFFFF96
:102AD000FFFFFFFFFFFFFFFFFFFFFFFFFFFFFFFF06
:102AE000FFFFFFFFFFFFFFFFFFFFFFFFFFFFFFFFF6
:102AF000FFFFFFFFFFFFFFFF0000000001020304D4
:102B0000010203040607080900000000000000009D
:102B100000000000F90E00002D0E00006D130000F3
:102B2000A08601000204060800B5DFF824B0DFF833
:102B300024A0DFF824C0FFF771FCDFF820B0DFF835
:102B400020A0DFF820C0FFF769FC00BD704700BF80
:102B50000000002017010020D027000018010020ED
:102B600024010020082B0000FFFFFFFFFFFFFFFFF5
:102B7000FFFFFFFFFFFFFFFFFFFFFFFFFFFFFFFF65
:102B8000FFFFFFFFFFFFFFFFFFFFFFFFFFFFFFFF55
:102B9000FFFFFFFFFFFFFFFFFFFFFFFFFFFFFFFF45
:102BA000FFFFFFFFFFFFFFFFFFFFFFFFFFFFFFFF35
:102BB000FFFFFFFFFFFFFFFFFFFFFFFFFFFFFFFF25
:102BC000FFFFFFFF00B5DFF810B0DFF810A0FFF740
:102BD00021FD00BD704700BF00000020A0010020C3
:00000001FF
