:100000006CEF11F00000000000EF00F000000000B5
:0A0010000000000000000000F3D71C
:0E001C000101E4B102D08B9801D08B88120054
:0E002A000101E4B102D08B9601D08B8612004A
:0E0038000101E4B102D08D9601D08D86120038
:0E0046000101E4B102D0899401D08984120036
:0E0054000101E4B102D08B9C01D08B8C120014
:0E0062000101E4B102D08B9401D08B84120016
:0E0070000101E4B102D08B9A01D08B8A1200FC
:0E007E000101E4B102D08B9E01D08B8E1200E6
:0E008C000101E4B102D08A9201D08A821200F2
:0E009A000101E4B102D08D9401D08D841200DA
:0E00A8000101E4B102D08F9201D08F821200CC
:0E00B6000101E4B102D08F9401D08F841200BA
:0E00C4000101E4B102D08B9801D08B881200AC
:0E00D2000101E4B102D08B9601D08B861200A2
:0E00E0000101E4B102D08A9401D08A8412009A
:0E00EE000101E4B102D08B9801D08B88120082
:0E00FC000101E4B102D08B9601D08B86120078
:0E010A000101E4B102D08F9001D08F8012006D
:0E0118000101E4B102D08B9A01D08B8A120053
:0E0126000101E4B102D08B9801D08B88120049
:0E0134000101E4B102D08B9801D08B8812003B
:0E0142000101E4B102D08B9601D08B86120031
:0E0150000101E4B102D08B9201D08B8212002B
:0E015E000101E4B102D08B9A01D08B8A12000D
:0E016C000101E4B102D08D9001D08D8012000F
:10017A000F0121B302D00000FBD7E4C11CFF12001B
:0E018A00ACB202D00000FCD7E4C1ADFF120001
:0E0198000101E4B102D08B9001D08B801200E7
:0E01A6000101E4B102D0899001D089801200DD
:0E01B4000101E4B102D0899801D089881200BF
:0E01C2000101E4B102D0899201D089821200BD
:0E01D0000101E4B102D08B9601D08B861200A3
:0E01DE000101E4B102D08D9201D08D82120099
:0E01EC000101E4B102D08B9801D08B88120083
:0E01FA000101E4B102D08B9E01D08B8E120069
:0E0208000101E4B102D08A9001D08A80120078
:0E0216000101E4B102D08B9601D08B8612005C
:0E0224000101E4B102D08B9C01D08B8C120042
:10023200F250026EF29E0500FF6A0150FE6E0050FF
:08024200FD6E02BEF28E1200F7
:10024A0068B409D01F0E6614016E0150000A03E15A
:0A025A00010E006E01D0006A1200D0
:10026400C7B409D01F0EC514016E0150000A03E182
:0A027400010E006E01D0006A1200B6
:0A027E00000E82B6010E006E1200A1
:0A028800000E82BE010E006E12008F
:0A029200000E80B8010E006E12008D
:0A029C00000E82B8010E006E120081
:0A02A600000E84B6010E006E120077
:0A02B000000E82BC010E006E120069
:0A02BA00000E81B2010E006E12006A
:0A02C400000E84B2010E006E12005D
:0A02CE00000E82BE010E006E120049
:0A02D800000E82B8010E006E120045
:0A02E200000E9EBA010E006E12001D
:0A02EC00000E82B2010E006E120037
:0A02F600000E82B8010E006E120027
:0A030000000E82BC010E006E120018
:0A030A00000E81B0010E006E12001B
:0A031400000EACB2010E006E1200E4
:10031E00AECF01F0ABA202D0AB98AB8801C000F01B
:02032E001200BB
:0A033000000E82B6010E006E1200EE
:0A033A00000E82B8010E006E1200E2
:0A034400000E82B4010E006E1200DC
:10034E006EC0E0F16FC0E1F170C0E2F171C0E3F197
:10035E009E96C5869EB620D000016E516F1170110B
:10036E00711119E00101E051E111E211E3110CE10B
:10037E0083C1E1FF84C1E2FF030EE66E81C100F08E
:10038E0082C101F04FDF08D0010E0101E05F000EC7
:10039E00E15BE25BE35BDED70101C9CFDFF1DE514A
:1003AE00000A02E1C58A01D0C59A9E96C5886EC024
:1003BE00E0F16FC0E1F170C0E2F171C0E3F19EB601
:1003CE0020D000016E516F117011711119E00101F1
:1003DE00E051E111E211E3110CE183C1E1FF84C1AF
:1003EE00E2FF030EE66E81C100F082C101F01ADF5A
:1003FE0008D0010E0101E05F000EE15BE25BE35B02
:08040E00DED7DFC100F012008F
:100416006EC0DEF16FC0DFF170C0E0F171C0E1F1D6
:10042600C582C5A220D000016E516F1170117111E5
:1004360019E00101DE51DF11E011E1110CE183C188
:10044600E1FF84C1E2FF060EE66E81C100F082C1C3
:1004560001F0ECDE08D0010E0101DE5F000EDF5B6D
:08046600E05BE15BDED7120050
:10046E0072C0E0F173C0E1F174C0E2F175C0E3F166
:10047E00A19A6686A1BA20D000017251731174112F
:10048E00751119E00101E051E111E211E3110CE1E6
:10049E007BC1E1FF7CC1E2FF030EE66E79C100F085
:1004AE007AC101F0BFDE08D0010E0101E05F000E3F
:1004BE00E15BE25BE35BDED701016ACFDFF1DE5188
:1004CE00000A02E1668A01D0669AA19A668872C015
:1004DE00E0F173C0E1F174C0E2F175C0E3F1A1BACD
:1004EE0020D00001725173117411751119E00101C0
:1004FE00E051E111E211E3110CE17BC1E1FF7CC19E
:10050E00E2FF030EE66E79C100F07AC101F08ADED9
:10051E0008D0010E0101E05F000EE15BE25BE35BE0
:08052E00DED7DFC100F012006E
:10053600A19ADEC16AFF72C0DFF173C0E0F174C038
:10054600E1F175C0E2F168A422D000017251731185
:10055600741175111BE00101DF51E011E111E21187
:100566000EE17BC1E1FF7CC1E2FF040EE66E79C1BC
:1005760000F07AC101F05ADE010E006E3BD0010E8A
:100586000101DF5F000EE05BE15BE25BDCD772C07E
:10059600DFF173C0E0F174C0E1F175C0E2F1A1BA18
:1005A60022D0000172517311741175111BE0010103
:1005B600DF51E011E111E2110EE17BC1E1FF7CC1E7
:1005C600E2FF040EE66E79C100F07AC101F02EDE7C
:1005D600010E006E0FD0010E0101DF5F000EE05B21
:1005E600E15BE25BDCD766BC02D0006A03D06684BE
:0605F600020E006E12006F
:0A05FC00000E82BA010E006E12001C
:100606009E96DEC1C9FF6EC0DFF16FC0E0F170C01B
:10061600E1F171C0E2F1C7A422D000016E516F1161
:10062600701171111BE00101DF51E011E111E211BE
:100636000EE183C1E1FF84C1E2FF040EE66E81C1D3
:1006460000F082C101F0F2DD010E006E3BD0010E1A
:100656000101DF5F000EE05BE15BE25BDCD76EC0B1
:10066600DFF16FC0E0F170C0E1F171C0E2F19EB65A
:1006760022D000016E516F11701171111BE0010142
:10068600DF51E011E111E2110EE183C1E1FF84C106
:10069600E2FF040EE66E81C100F082C101F0C6DD04
:1006A600010E006E0FD0010E0101DF5F000EE05B50
:1006B600E15BE25BDCD7C5BC02D0006A03D0C5842F
:0606C600020E006E12009E
:0A06CC00000E81B4010E006E120052
:0A06D600000E82B6010E006E120045
:0A06E000000E84B4010E006E12003B
:0A06EA00000E82B8010E006E12002F
:0A06F400000E80B4010E006E12002B
:0406FE0066841200FC
:0A070200000E86B0010E006E12001A
:04070C00C58412008E
:1007100072C0DEF173C0DFF174C0E0F175C0E1F1C9
:10072000668266A220D00001725173117411751196
:1007300019E00101DE51DF11E011E1110CE17BC193
:10074000E1FF7CC1E2FF060EE66E79C100F07AC1DE
:1007500001F06FDD08D0010E0101DE5F000EDF5BEE
:08076000E05BE15BDED7120053
:0A076800000E80B0010E006E1200BA
:100772006EC0E0F16FC0E1F170C0E2F171C0E3F16F
:100782000101DE6BDF6BDF51120802E1DE518E08E0
:1007920008E367DD005201E004D00101DE4BDF2BEC
:1007A200F2D70101120EDF5D02E18F0EDE5D03E37F
:1007B2007B0E006E26D0C580C5A022D000016E51EE
:1007C2006F11701171111BE00101E051E111E21191
:1007D200E3110EE183C1E1FF84C1E2FF050EE66E83
:1007E20081C100F082C101F023DD010E006E09D04B
:1007F200010E0101E05F000EE15BE25BE35BDCD72F
:04080200006A120076
:0A080600000E82B8010E006E120011
:0A081000000EA4BA010E006E1200E3
:0C081A00000E0F0121B3010E006E120051
:0A082600000E82B0010E006E1200F9
:1008300072C0E0F173C0E1F174C0E2F175C0E3F1A0
:100840000101DE6BDF6BDF51120802E1DE518E0821
:1008500008E3FBDC005201E004D00101DE4BDF2B9A
:10086000F2D70101120EDF5D02E18F0EDE5D03E3C0
:100870007B0E006E26D0668066A022D000017251E9
:100880007311741175111BE00101E051E111E211C6
:10089000E3110EE17BC1E1FF7CC1E2FF050EE66ED4
:1008A00079C100F07AC101F0C4DC010E006E09D0FC
:1008B000010E0101E05F000EE15BE25BE35BDCD770
:0408C000006A1200B8
:1008C4001DCF01F00F0122A302D02299228901C079
:0408D40000F012001E
:0A08D800000E86B4010E006E12003F
:0A08E200000E82B6010E006E120037
:0A08EC00000E84B0010E006E120031
:0A08F600000E82BA010E006E12001F
:0A090000000E82B6010E006E120018
:0A090A00000E80B2010E006E120014
:0A091400000E82BA010E006E120000
:0A091E00000E82B6010E006E1200FA
:0A092800000E86B2010E006E1200F0
:100932000101D46BD56B44C100F045C101F078DCF4
:1009420000C0D4F1000E0101D56FD4C100F0D5C1B1
:0409520001F012009E
:100956000101DC6BDD6BD5C1DAF1D6C1DBF1D4C1A7
:1009660000F000360090008063C1E1FF64C1E2FF41
:1009760000C0E6FF61C100F062C101F057DC005023
:100986000101DC13000EDD13010ED75F000ED85BEC
:10099600D751D81115E05AC1E1FF5BC1E2FF010E44
:1009A600E66E58C100F059C101F040DCDAC1E1FF42
:1009B600DBC1E2FF00C0E6FF0101DA4BDB2BE4D727
:1009C6005AC1E1FF5BC1E2FFE66A58C100F059C1B6
:1009D60001F02CDCDAC1E1FFDBC1E2FF00C0E6FF7B
:1009E6000101D951000A05E154C100F055C101F0D9
:1009F6001DDC0101D951010A05E15DC100F05EC1AE
:0E0A060001F014DCDCC100F0DDC101F01200D3
:100A1400086A096A100E0C6E01340836093604504F
:100A2400085E0550D8A0053C095ED8B007D0045034
:100A340008260550D8B0053C0926D8900036013662
:060A44000C2EEAD712009F
:100A4A000101DC6BDD6BD5C1DAF1D6C1DBF1D4C1B2
:100A5A0000F00036009063C1E1FF64C1E2FF00C00C
:100A6A00E6FF61C100F062C101F019EC01F000502B
:100A7A000101DC13000EDD13D7C100F0D8C101F06B
:100A8A00010ED75F000ED85B0050011018E063C159
:100A9A00E1FF64C1E2FFDAC1E9FFDBC1EAFFEECFA1
:100AAA00E6FF61C100F062C101F019EC01F00050EB
:100ABA000101DC13000EDD13DA4BDB2BDDD7D95134
:100ACA00000A06E154C100F055C101F019EC01F029
:100ADA000101D951010A06E15DC100F05EC101F0D0
:0E0AEA0019EC01F0DCC100F0DDC101F01200DA
:100AF8007A0E01017D6F010E7E6FE40E7F6F010E8D
:100B0800806FC40E656F080E666F000E676F000E6B
:100B1800686F100E4C6F080E4D6F000E4E6F000E72
:100B28004F6F1A0E506F080E516F000E526F000E65
:100B3800536F0F01218B900E226F98849892A4AA6C
:0A0B480003D01DCF00F0FBD7120010
:100B5200CDC1CFF1EDDE5CC1D4F1CF0ED56F010E68
:100B6200D66F010ED76F000ED86F010ED96F6CDFF2
:100B72005CC1D4F1CE0E0101D56F010ED66F020E0B
:100B8200D76F000ED86FD96BE5DECEC100F0120030
:100B9200086A080E0C6E003408360450085ED8B09D
:0E0BA20002D00826D89000360C2EF5D712008F
:100BB0000101D16B050ED15D0AE2D151CF25E16E65
:100BC000000ED021E26E200EE66ED12BF3D7D1516C
:100BD000CF25E16E000ED021E26EE66AD107D15139
:100BE000CF25D26F000ED021D36F0A0E046E000EF7
:100BF000056ECDC100F0CEC101F00CDF08C000F0E1
:100C000009C001F0300E0026D2C1E1FFD3C1E2FFDE
:100C100000C0E6FF0A0E046E000E056ECDC100F0A6
:100C2000CEC101F0F7DE00C0CDF101C0CEF1000E63
:100C3000011802E1000E001801E102D0D107CFD760
:020C40001200A0
:100C42003EC1E1FF3FC1E2FFCDC1E9FFCEC1EAFFF4
:100C5200EECFE6FF3CC100F03DC101F019EC01F01E
:040C6200006A120012
:100C6600CDC1CFF1CEC1D0F161DE5CC1D4F1CF0EE2
:100C7600D56F010ED66F020ED76F000ED86FD96BE7
:040C8600E1DE120099
:100C8A008A0E01017D6F010E7E6FE40E7F6F010EE9
:100C9A00806F1E0E656F030E666F000E676F000E83
:100CAA00686FE20E4C6F020E4D6F000E4E6F000E13
:100CBA004F6F140E506F030E516F000E526F000EDD
:100CCA00536FAC8A900EAB6E948E949C9EAA03D0FE
:080CDA00AECF00F0FBD71200C1
:100CE200640E0101346F020E356F000E366F000E76
:100CF200376F720E386F070E396F000E3A6F000EA3
:100D02003B6F160E716F040E726F000E736F000E42
:100D1200746F4E0E756F030E766FDE0E776F010ED7
:100D2200786F060E696F060E6A6FDE0E6B6F010E2C
:100D32006C6F0C0E6D6F070E6E6F000E6F6F000EF4
:100D4200706F949894968B988B9694889486C79E8D
:080D5200C79C380EC66E1200AA
:100D5A00C3C1C6F1C4C1C7F1C5C1C8F10BD0A00E49
:100D6A00C86EBADF44D0280EC86EB6DF40D0040E73
:100D7A00006E3FD0C6C1F6FFC7C1F7FFC8C1F8FF72
:100D8A000900F5CF01F00900F5CF02F00900F5CF0F
:100D9A0003F00900F5CF04F00450000A08E10350FB
:100DAA00010A05E10250860A02E10150A00AD7E0D1
:100DBA00C6C1F6FFC7C1F7FFC8C1F8FF0900F5CFE2
:100DCA0001F00900F5CF02F00900F5CF03F00900A0
:100DDA00F5CF04F00450000A08E10350060A05E1C1
:100DEA0002501A0A02E10150800ABDE0C0D7000E83
:040DFA00006E120075
:100DFE00C3C1C6F1C4C1C7F1C5C1C8F10BD0A00EA5
:100E0E00C86E68DF44D0280EC86E64DF40D0040E72
:100E1E00006E3FD0C6C1F6FFC7C1F7FFC8C1F8FFCD
:100E2E000900F5CF01F00900F5CF02F00900F5CF6A
:100E3E0003F00900F5CF04F00450000A08E1035056
:100E4E00010A05E10250860A02E10150A00AD7E02C
:100E5E00C6C1F6FFC7C1F7FFC8C1F8FF0900F5CF3D
:100E6E0001F00900F5CF02F00900F5CF03F00900FB
:100E7E00F5CF04F00450000A08E10350060A05E11C
:100E8E0002501A0A02E10150800ABDE0C0D7000EDE
:040E9E00006E1200D0
:100EA2005DD00101C4B102D0929401D092840F01AD
:100EB20025957AD00101C4B102D0969601D09686CA
:100EC20073D00101C4B102D0969401D096846CD043
:100ED2000101C4B102D0949601D0948665D001017B
:100EE200C4B102D0949801D094885ED00101C4B1FB
:100EF20002D0949A01D0948A57D00101C4B102D091
:100F0200989001D0988050D00101C4B102D093943E
:100F120001D0938449D00101C4B102D0989401D088
:100F220098840F01239540D00101C4B102D0989258
:100F320001D098820F01239337D00101C4B102D0AE
:100F4200949601D0948630D00101C4B102D0949815
:100F520001D0948829D0010E006E28D00101C3511E
:100F6200000A9FE0C351010AA5E0C351020AA9E0A9
:100F7200C351030AADE0C351040AB1E0C351050AEB
:100F8200B5E0C351060AB9E0C351070ABDE0C35137
:100F9200080AC1E0C351090AC7E0C3510A0ACDE0F9
:0E0FA200C3510B0AD1E0D7D7000E006E12002B
:100FB000C3C1C6F1C4C1C7F10D0E0101C86F0A0E4D
:100FC000C96F35D0C6C1CDF1C7C1CEF13ADE3AD036
:100FD000C6C1E9FFC7C1EAFFEE5209E0C6C1CDF1C3
:100FE000C7C1CEF12EDE0101C64BC72BF1D72AD0E7
:100FF000C6C1E9FFC7C1EAFFEE5209E0C6C1CDF1A3
:10100000C7C1CEF11EDE0101C64BC72BF1D70101CE
:10101000C80ECD6F010ECE6F14DEC90E0101CD6F6B
:10102000010ECE6F0EDE0ED0060E006E0CD001014A
:10103000C551000AC7E0C551010ACAE0C551020AFC
:08104000D7E0F2D7006A1200AC
:1010480059D00101C4B102D0929001D092800F0111
:10105800259176D00101C4B102D0949001D094803A
:101068006FD00101C4B102D0969001D0968068D0AB
:101078000101C4B102D0949601D0948661D00101D7
:10108800C4B102D0949801D094885AD00101C4B157
:1010980002D0949A01D0948A53D00101C4B102D0ED
:1010A800949201D094824CD00101C4B102D09390A3
:1010B80001D0938045D00101C4B102D0949E01D0E3
:1010C800948E3ED00101C4B102D0949C01D0948C7E
:1010D80037D00101C4B102D0949601D0948630D0A3
:1010E8000101C4B102D0949801D0948829D0010E8E
:1010F800006E28D00101C351000AA3E0C351010AC0
:10110800A9E0C351020AADE0C351030AB1E0C351DB
:10111800040AB5E0C351050AB9E0C351060ABDE0A7
:10112800C351070AC1E0C351080AC5E0C351090AFF
:10113800C9E0C3510A0ACDE0C3510B0AD1E0D7D7A1
:06114800000E006E120013
:10114E0059D00101C4B102D0929201D092820F0106
:10115E00259376D00101C4B102D0929801D0928825
:10116E006FD00101C4B102D0969201D0968268D0A0
:10117E000101C4B102D0949601D0948661D00101D0
:10118E00C4B102D0949801D094885AD00101C4B150
:10119E0002D0949A01D0948A53D00101C4B102D0E6
:1011AE00949401D094844CD00101C4B102D0939296
:1011BE0001D0938245D00101C4B102D0949E01D0DA
:1011CE00948E3ED00101C4B102D0949C01D0948C77
:1011DE0037D00101C4B102D0949601D0948630D09C
:1011EE000101C4B102D0949801D0948829D0010E87
:1011FE00006E28D00101C351000AA3E0C351010AB9
:10120E00A9E0C351020AADE0C351030AB1E0C351D4
:10121E00040AB5E0C351050AB9E0C351060ABDE0A0
:10122E00C351070AC1E0C351080AC5E0C351090AF8
:10123E00C9E0C3510A0ACDE0C3510B0AD1E0D7D79A
:06124E00000E006E12000C
:10125400180E046EC3C100F09ADC08C000F000C090
:10126400C5F1C5C1C3F10A0E046EC5C100F08FDC1F
:1012740008C000F000C0C4F10A0E046EC5C100F03D
:1012840086DC00C0CEF10101CE37CE91CE37CE91AF
:10129400CE37CE91CE37CE91C451CE13020ECD6F40
:0412A400E0DC120078
:1012A80021D0CF0EAF6EAC94ECDC6BD0670EAF6E76
:1012B800AC94E7DC66D0CF0EAF6EAC84E2DC61D0D4
:1012C800670EAF6EAC84DDDC5CD0440EAF6EAC84D0
:1012D800D8DC57D0220EAF6EAC84D3DC52D0060EC9
:1012E800006E58D00101000E006EC61908E10050CA
:1012F800C51905E1120EC41902E1C351C00AD1E0B3
:10130800000E006EC61908E10050C51905E1250E4A
:10131800C41902E1C351800AC9E0000E006EC61963
:1013280008E10050C51905E14B0EC41902E1C3518B
:10133800000AC1E0000E006EC61908E10050C51988
:1013480005E1960EC41902E1C351000AB9E0000E86
:10135800006EC61908E10050C51905E1E10EC4196F
:1013680002E1C351000AB1E0C651000A08E1C551C3
:10137800010A05E1C451C20A02E1C351000AAAE008
:10138800AED78A0E3C6F010E3D6FE40E3E6F010E24
:061398003F6F006A120025
:10139E003ED00F0120870D0E1F6F040E1E6F21858C
:1013AE007CEC05F083D00F012087060E1F6F820E96
:1013BE001E6F21857CEC05F079D00F012087030E7E
:1013CE001F6F400E1E6F21857CEC05F06FD00F0154
:1013DE002087010E1F6FA00E1E6F21857CEC05F07D
:1013EE0065D00F012087010E1F6F150E1E6F218510
:1013FE007CEC05F05BD00F0120871F6B8A0E1E6FF1
:10140E0021857CEC05F052D0060E006E59D0000EF0
:10141E00006E0101C61908E10050C51905E1120E52
:10142E00C41902E1C351C00AB4E0000E006EC61921
:10143E0008E10050C51905E1250EC41902E1C3519A
:10144E00800AB1E0000E006EC61908E10050C51901
:10145E0005E14B0EC41902E1C351000AAEE0000EC5
:10146E00006EC61908E10050C51905E1960EC419A3
:10147E0002E1C351000AABE0000E006EC61908E18E
:10148E000050C51905E1E10EC41902E1C351000A6D
:10149E00A8E0C651000A08E1C551010A05E1C45190
:1014AE00C20A02E1C351000AA6E0AED701017A0ECC
:1014BE003C6F010E3D6FE40E3E6F010E3F6F006AF2
:0214CE0012000A
:1014D00027D0CF0EAF6EAC9445EC06F070D0670EFF
:1014E000AF6EAC9445EC06F06AD0CF0EAF6EAC8414
:1014F00045EC06F064D0670EAF6EAC8445EC06F0A8
:101500005ED0440EAF6EAC8445EC06F058D0220E8F
:10151000AF6EAC8445EC06F052D0060E006E58D08B
:101520000101000E006EC61908E10050C51905E161
:10153000120EC41902E1C351C00ACBE0000E006EC6
:10154000C61908E10050C51905E1250EC41902E1CC
:10155000C351800AC4E0000E006EC61908E10050B5
:10156000C51905E14B0EC41902E1C351000ABDE0E3
:10157000000E006EC61908E10050C51905E1960E6F
:10158000C41902E1C351000AB6E0000E006EC6198C
:1015900008E10050C51905E1E10EC41902E1C3518B
:1015A000000AAFE0C651000A08E1C551010A05E191
:1015B000C451C20A02E1C351000AA9E0AED78A0EA3
:1015C0003C6F010E3D6FE40E3E6F010E3F6F006AEF
:0215D000120007
:1015D200C3C1C6F1C4C1C7F1C5C1C8F10DD0A00EC7
:1015E200C86E71EC06F045D0280EC86E71EC06F09C
:1015F20040D0040E006E3FD0C6C1F6FFC7C1F7FF50
:10160200C8C1F8FF0900F5CF01F00900F5CF02F0DB
:101612000900F5CF03F00900F5CF04F00450000AE9
:1016220008E10350010A05E10250860A02E1015075
:10163200A00AD5E0C6C1F6FFC7C1F7FFC8C1F8FFCF
:101642000900F5CF01F00900F5CF02F00900F5CF4E
:1016520003F00900F5CF04F00450000A08E103503A
:10166200060A05E102501A0A02E10150800ABCE0B2
:08167200C0D7000E006E12004B
:10167A00300E0101C325006E000EC421016E000E5A
:10168A00C521026E1C0E0024F66E000E0120F76EB4
:10169A00000E0220F86E0900F5CF48F10900F5CFD7
:1016AA0049F10900F5CF4AF10900F5CF4BF11200D3
:1016BA00C3C1F6FFC4C1F7FFC5C1F8FF0900F5CFE2
:1016CA0044F10900F5CF45F10900F5CF46F10900CB
:1016DA00F5CF47F1040E0101C325F66E000EC421B1
:1016EA00F76E000EC521F86E0900F5CF54F1090016
:1016FA00F5CF55F10900F5CF56F10900F5CF57F1AD
:10170A00080EC325F66E000EC421F76E000EC52121
:10171A00F86E0900F5CF5DF10900F5CF5EF1090019
:10172A00F5CF5FF10900F5CF60F10C0EC325F66E17
:10173A00000EC421F76E000EC521F86E0900F5CF20
:10174A0061F10900F5CF62F10900F5CF63F10900F3
:10175A00F5CF64F1100EC325F66E000EC421F76EA4
:10176A00000EC521F86E0900F5CF58F10900F5CF32
:10177A0059F10900F5CF5AF10900F5CF5BF11200D2
:10178A0027D0CF0EAF6EAC9445EC06F070D0670E42
:10179A00AF6EAC9445EC06F06AD0CF0EAF6EAC8457
:1017AA0045EC06F064D0670EAF6EAC8445EC06F0EB
:1017BA005ED0440EAF6EAC8445EC06F058D0220ED3
:1017CA00AF6EAC8445EC06F052D0060E006E58D0CF
:1017DA000101000E006EC61908E10050C51905E1A5
:1017EA00120EC41902E1C351C00ACBE0000E006E0A
:1017FA00C61908E10050C51905E1250EC41902E110
:10180A00C351800AC4E0000E006EC61908E10050F8
:10181A00C51905E14B0EC41902E1C351000ABDE026
:10182A00000E006EC61908E10050C51905E1960EB2
:10183A00C41902E1C351000AB6E0000E006EC619CF
:10184A0008E10050C51905E1E10EC41902E1C351CE
:10185A00000AAFE0C651000A08E1C551010A05E1D4
:10186A00C451C20A02E1C351000AA9E0AED78A0EE6
:10187A003C6F010E3D6FE40E3E6F010E3F6F006A32
:02188A0012004A
:10188C00020E0101CD6FA9EC05F00F0E0014036ED2
:10189C00300E0014026E02C000F00032009E0032C6
:1018AC00009E0032009E0032009E0A0E0002F3CF12
:0818BC0000F0035000261200A9
:1018C400640E046E000E056EC3C100F0C4C101F0C5
:1018D4000AEC05F008C000F009C001F000C0C7F12F
:1018E40001C0C8F1C7C1C3F1C8C1C4F10A0E046E76
:1018F400000E056EC7C100F0C8C101F00AEC05F086
:1019040008C000F009C001F000C0C5F101C0C6F173
:101914000A0E046E000E056EC7C100F0C8C101F0C6
:101924000AEC05F0040E026E00C0CEF1025005E090
:101934000101CE37CE91FF0FFAD70101C551CE1365
:0A194400060ECD6F33EC06F0120022
:10194E000101CD6BA9EC05F00F0E0014036E700EA5
:10195E000014026E02C000F00032009E0032009EA3
:10196E000032009E0032009E0A0E0002F3CF00F0FD
:06197E00035000261200D8
:10198400010E0101CD6FA9EC05F00F0E0014036EDA
:10199400700E0014026E02C000F00032009E00328D
:1019A400009E0032009E0032009E0A0E0002F3CF19
:0819B40000F0035000261200B0
:1019BC000D0E046EC3C100F0C9EC05F008C000F0B8
:1019CC0000C0C3F10050000A03E1010E0101C36F16
:1019DC0001010A0E046EC3C100F0C9EC05F008C089
:1019EC0000F000C0C4F10A0E046EC3C100F0C9ECD3
:1019FC0005F000C0CEF1CE37CE91CE37CE91CE379A
:101A0C00CE91CE37CE91C451CE13050ECD6F33ECA3
:041A1C0006F01200BE
:101A20003C0E046EC3C100F0C9EC05F008C000F024
:101A300000C0C5F1C5C1C3F10A0E046EC5C100F0F6
:101A4000C9EC05F008C000F000C0C4F10A0E046E35
:101A5000C5C100F0C9EC05F000C0CEF10101CE37E0
:101A6000CE91CE37CE91CE37CE91CE37CE91C451D6
:0A1A7000CE13CD6B33EC06F012002C
:101A7A003C0E046EC3C100F0C9EC05F008C000F0CA
:101A8A0000C0C5F1C5C1C3F10A0E046EC5C100F09C
:101A9A00C9EC05F008C000F000C0C4F10A0E046EDB
:101AAA00C5C100F0C9EC05F000C0CEF10101CE3786
:101ABA00CE91CE37CE91CE37CE91CE37CE91C4517C
:0C1ACA00CE13010ECD6F33EC06F01200BD
:101AD6001F0E0101C315016E01C0C3F10150000ABA
:101AE60002E1010EC36F0A0E046EC3C100F0C9EC19
:101AF60005F008C000F000C0C4F10A0E046EC3C1B0
:101B060000F0C9EC05F000C0CEF1CE37CE91CE374D
:101B1600CE91CE37CE91CE37CE91C451CE13040E90
:081B2600CD6F33EC06F0120054
:101B2E00070E0101C315016E01C0C3F10150000A79
:101B3E0002E1010EC36F030ECD6FC3C1CEF133ECC4
:041B4E0006F012008B
:0C1B5200030E0101CD6FA9EC05F012009C
:101B5E00050E0101CD6FA9EC05F00F0E0014036EFA
:101B6E00100E0014026E02C000F00032009E003211
:101B7E00009E0032009E0032009E0A0E0002F3CF3D
:081B8E0000F0035000261200D4
:101B9600040E0101CD6FA9EC05F00F0E0014036EC3
:101BA600300E0014026E02C000F00032009E0032B9
:101BB600009E0032009E0032009E0A0E0002F3CF05
:081BC60000F00350002612009C
:101BCE00060E0101CD6FA9EC05F00F0E0014036E89
:101BDE00F00E0014026E02C000F00032009E0032C1
:101BEE00009E0032009E0032009E0A0E0002F3CFCD
:081BFE0000F003500026120064
:101C06000101C56BC66BC3C103F0C4C104F0C3C1F7
:101C160005F0C4C106F003C0E9FF04C0EAFFEE50B8
:101C2600200A04E1C551C61101E110D0010EC56FAD
:101C3600000EC66F03C0E9FF04C0EAFF05C0E1FF5E
:101C460006C0E2FFEECFE6FF054A062A03C001F012
:101C560004C002F0034A042A01C0E9FF02C0EAFFF9
:101C6600EE50000AD8E1C3C100F0C4C101F0120071
:101C76000101C96BCA6BC3C1CBF1C4C1CCF1800EE3
:101C8600C419006E800E005C02E1000EC35D0BE21B
:101C9600010EC96F000ECA6FC3510008CB6FC4C1D5
:101CA600CCF1000ECC57CBC1CDF1CCC1CEF1C5C124
:101CB600CFF1C6C1D0F1D8EC05F0060EC76F000E05
:101CC600C86F000E006EC851005C02E1C7510008E3
:101CD60019E2C751C525E16EC851C621E26E010E53
:101CE600C75D006E000EC859016E0050C525E96E2D
:101CF6000150C621EA6EEECFE6FF010EC75F000E69
:101D0600C85BDFD7C5C1E1FFC6C1E2FF200EE66EA4
:101D1600C951CA111AE0C76BC86BC751C525E96E10
:101D2600C851C621EA6EEE50200A03E1C74BC82B04
:101D3600F4D7010EC75F000EC85BC751C525E16E1B
:0C1D4600C851C621E26E2D0EE66E1200A0
:101D52001DD0BCC1C3F1BDC1C4F1BEC1C5F1ADEC62
:101D620006F01FD0BCC1C3F1BDC1C4F1BEC1C5F1F3
:101D7200FFEC06F016D0BCC1C3F1BDC1C4F1BEC1B7
:101D8200C5F126DC0ED0010E006E0BD00101BB5155
:101D9200000ADFE0BB51010AE5E0BB51020AEBE0B9
:041DA200F2D7120062
:101DA6000101BB51010A08E1C20EC36F000EC46FE8
:101DB600020EC56FD8EC07F00101BB51020A08E11B
:101DC600D50EC36F000EC46F020EC56FD8EC07F0B8
:101DD6000101BB51030A08E1AF0EC36F000EC46FC9
:101DE600020EC56FD8EC07F00101BB51040A08E1E9
:101DF600760EC36F000EC46F020EC56FD8EC07F0E7
:101E06000101BB51050A08E1890EC36F000EC46FBC
:101E1600020EC56FD8EC07F00101BB51060A08E1B6
:101E26009C0EC36F000EC46F020EC56FD8EC07F090
:101E36000101BB51070A08E1E80EC36F000EC46F2B
:0A1E4600020EC56FD8EC07F0120081
:101E5000150E0C6EC60E0D6E0D2EFED70C2EFCD779
:041E6000000012006C
:101E6400BBC1C3F162DEBCC1C3F133DEBDC1C3F18A
:0E1E7400A3DDBEC1C3F1BFC1C4F122DD120067
:101E820018D0BCC1C3F1BDC1C4F124EC08F01CD010
:101E9200BCC1C3F1BDC1C4F1A7EC08F015D0BCC1EF
:101EA200C3F1BDC1C4F151EC07F00ED0010E006EBA
:101EB2000BD00101BB51000AE4E0BB51010AE8E08A
:0A1EC200BB51020AECE0F2D7120057
:101ECC0042DEBBC1E1FFBCC1E2FF00C0E6FF5DDE4C
:101EDC00BDC1E1FFBEC1E2FF00C0E6FF3ADEBFC1FB
:101EEC00E1FFC0C1E2FF00C0E6FF6BDEC1C1E1FF54
:0E1EFC00C2C1E2FF00C0E6FF000EE66E12005B
:101F0A00C1C15CF1BEC1C3F1BFC1C4F1C0C1C5F159
:101F1A005DEC0BF0BBC1C3F1BCC1C4F1BDC1C5F1DD
:061F2A003DEC0BF012007B
:101F30000A0E046EBBC100F0C9EC05F000C0C3F18D
:101F4000000E0101C46F850EC56F010EC66F93DED2
:101F5000850EC36F010EC46F56DE850EC36F010E72
:101F6000C46F010EC56FD8EC07F00A0E046EBBC13A
:101F700000F0C9EC05F008C000F000C0C3F1000E8D
:101F80000101C46F850EC56F010EC66F74DE850E2C
:101F9000C36F010EC46F37DE850EC36F010EC46FB1
:0A1FA000010EC56FD8EC07F0120027
:101FAA0070DCBBC1E1FFBCC1E2FF00C0E6FFE5DCBB
:101FBA00BDC1E1FFBEC1E2FF00C0E6FFC3DCBFC195
:0C1FCA00E1FFC0C1E2FF00C0E6FF120012
:101FD600090E0B6E1E0E0C6EE40E0D6E0D2EFED748
:0C1FE6000C2EFCD70B2EFAD700001200C6
:101FF200BBC1C3F12AEC09F0BCC1C3F13DDDBDC1D7
:06200200C3F10DDD120028
:102008002FD0BCC1C3F1BDC1C4F1BEC1C5F1BFC1B0
:10201800C6F154EC09F032D0BCC1C3F1BDC1C4F162
:10202800BEC1C5F1BFC1C6F168EC0AF027D0BCC17A
:10203800C3F1BDC1C4F1BEC1C5F1BFC1C6F1CFEC8A
:1020480009F01CD0BCC1C3F1BDC1C4F1BEC1C5F10A
:10205800BFC1C6F1C5EC0BF011D0010E006E0ED059
:102068000101BB51000ACDE0BB51010AD5E0BB51CB
:0E207800020ADDE0BB51100AE5E0EFD71200CE
:102086000101CD6BA9EC05F07F0E00140101CE6FA6
:08209600CD6B33EC06F01200E3
:10209E000101BB6B070EBC6F010EBD6FEBDE0101C4
:1020AE00BB6B790EBC6F240EBD6F000EBE6F4ADE89
:1020BE00100E0101BB6F800EBC6F250EBD6F000EA2
:0A20CE00BE6FBF6F9ADF80DF1200C3
:1020D8000900F5CFE6FF0006FBE10106F9E1120071
:1020E800BA0E0101BB6F010EBC6FB70EBD6F010EBA
:1020F800BE6FB80EBF6F010EC06F53DFB90E01017E
:10210800BB6F010EBC6F420EBD6F010EBE6F430E5A
:10211800BF6F010EC06F400EC16F010EC26FD2DEDD
:102128003A500101B819D8B491D0B751BA11006E1C
:10213800B8510010016E0150000A17E143514211D5
:10214800016E0150010A11E13B0EC36F000EC46F0E
:10215800020EC56FD8EC07F0520E0101C36F000ED6
:10216800C46F020EC56FD8EC07F0650E0101C36F8E
:10217800000EC46F010EC56FD8EC07F0BAC1BBF1F1
:10218800D3DE4E0E0101C36F000EC46F010EC56F82
:10219800D8EC07F0B7C1BBF1C7DE500E0101C36F21
:1021A800000EC46F010EC56FD8EC07F0B8C1BBF1C3
:1021B800BBDE390E0101C36F000EC46F020EC56F7E
:1021C800D8EC07F0B9C1BBF1EADD1A0E0101C36F03
:1021D800000EC46F010EC56FD8EC07F042C1BBF109
:1021E800A3DE220E0101C36F000EC46F010EC56F7E
:1021F800D8EC07F043C1BBF197DE150E0101C36FA0
:10220800000EC46F010EC56FD8EC07F0170E010160
:10221800C36F000EC46F010EC56FD8EC07F040C144
:10222800BBF182DE240E0101C36F000EC46F020EE3
:10223800C56FD8EC07F0260E0101C36F000EC46FFE
:10224800020EC56FD8EC07F0B8C13AF0FDDD1200F8
:10225800050E0101BB6F240EBC6F000EBD6F650E2D
:10226800BE6F240EBF6F000EC06F680EC16F49DECF
:10227800FB0EC36F000EC46F020EC56FD8EC07F0DB
:102288000E0E0101C36F010EC46F020EC56FD8ECAC
:1022980007F0210E0101C36F010EC46F020EC56F56
:1022A800D8EC07F0170E0101BB6F3B0EBC6F320E66
:1022B800BD6F9BDE010E0101BB6F1F0EBC6F0C0EC4
:1022C800BD6FE20EBE6F070EBF6FC8DDD8DE12000D
:0E22D8003FEC12F0E0DEBCDF03DFFED7FFD7E5
:10247E0010EE15F01F0E006E020E016EE60EF66ED9
:0E248E00220EF76E000EF86E6CEC10F01200CD
:0222E6002E00C8
:0322E80032300091
:0822EB0020446174653A2000F3
:0222F3002E00BB
:0222F5002E00B9
:1022F7002D2D2D2D2D2D2D2D2D2D2D2D2D2D2D2D07
:032307002D2D0079
:01230A0000D2
:01230B00FFD2
:10230C0020204861707079204E6577205965617284
:03231C002020007E
:02231F003A0082
:022321003A0080
:102323002D2D2D2D2D2D2D2D2D2D2D2D2D2D2D2DDA
:032333002D2D004D
:092336002054696D65203A200075
:04233F00000000009A
:042343000000000096
:102347002020202020546875727364617920202032
:0323570020200043
:10235A0020202020202046726964617920202020D4
:03236A0020200030
:10236D002020202020536174757264617920202013
:03237D002020001D
:1023800020202020205765646E65736461792020C9
:032390002020000A
:102393002020202020204D6F6E6461792020202092
:0323A300202000F7
:1023A6002020202020205475657364617920202028
:0323B600202000E4
:1023B90020202020202053756E6461792020202060
:0323C900202000D1
:1023CC002D2D2D2D2D2D2D2D2D2D2D2D2D2D2D2D31
:0323DC002D2D00A4
:1023DF0020202020525443203320436C69636B200C
:0323EF00202000AB
:1023F2002D2D2D2D2D2D2D2D2D2D2D2D2D2D2D2D0B
:032402002D2D007D
:10240500A601E4019801E4016C01E4014201E40143
:102415003401E4015E01E4015001E4010802E40134
:10242500FA01E4012402E4011602E401EC01E401ED
:102435006807000026080000EC080000E20800001C
:10244500F6020000F6080000EC0200000A03000096
:10245500CE0200000003000000090000D8020000C1
:10246500720700000C070000160400000606DE01D6
:042475004E03DE0133
:04247900A086010038
:020000040030CA
:0E00000015137F7CF98B91FFFFC0FFE0FF40DE
:00000001FF
